:101C000012C02CC02BC02AC029C028C027C026C0A3
:101C100025C024C023C022C021C020C01FC01EC0B8
:101C20001DC01CC01BC011241FBECFE5D4E0DEBF09
:101C3000CDBF10E0A0E6B0E0E4EFFFE102C0059008
:101C40000D92A236B107D9F711E0A2E6B0E001C0CB
:101C50001D92AA36B107E1F74AD0CAC1D1CF5D9B28
:101C6000FECF8CB90895EF92FF920F931F93EE244D
:101C7000FF24870113C00894E11CF11C011D111DF4
:101C800081E8E81684E8F8068EE1080780E0180786
:101C900028F0E0916200F091630009955F9BEBCF23
:101CA0008CB11F910F91FF90EF9008950F931F93A8
:101CB000082F10E002C0D7DF1F5F1017E0F31F915D
:101CC0000F9108951F93182FCEDF803231F484E1F5
:101CD000C6DF812FC4DF80E1C2DF1F910895C3DF1B
:101CE000803221F484E1BBDF80E1B9DF0895CF9237
:101CF000DF92EF92FF920F931F93CF93DF93000039
:101D000010BC8CE089B988E18AB986E880BDBD9AAB
:101D10001092680150E220E030E009C088B38527C6
:101D200088BBC9010197F1F74F5F4093680140916B
:101D30006801403198F397DF803381F1813399F462
:101D400092DF8032C1F784E18ADF81E488DF86E5B3
:101D500086DF82E584DF80E282DF89E480DF83E55D
:101D60007EDF80E526C1803429F47DDF8638B0F03F
:101D70007ADF14C0813471F476DF803811F482E0A8
:101D800020C1813811F481E01CC1823809F018C1EA
:101D900082E117C1823421F484E188DFA0DFCBCF58
:101DA000853411F485E0F9CF8035C1F38135B1F385
:101DB0008235A1F3853539F456DF8093640053DF13
:101DC00080936500EBCF863519F484E06FDFF8C0AF
:101DD000843609F094C047DF8093670144DF809325
:101DE0006601809169018E7F809369013CDF8534B3
:101DF00029F48091690181608093690136E6C32EE0
:101E000030E0D32E760100E010E006C02CDFF701B1
:101E100081937F010F5F1F4F809166019091670151
:101E20000817190798F31FDF803209F084CF8091DB
:101E3000690180FD15C01EC0F60161916F0180919E
:101E4000640090916500C7D0809164009091650016
:101E5000019690936500809364000F5F1F4F02C04E
:101E600000E010E080916601909167010817190762
:101E700018F343C0F894E199FECF1127E091640074
:101E8000F0916500EE0FFF1FC6E6D0E0809166017D
:101E90009091670180FF01C00196103051F422D06B
:101EA00003E000935700E8951DD001E1009357002F
:101EB000E8950990199016D001E000935700E89535
:101EC0001395103258F011270DD005E000935700FC
:101ED000E89508D001E100935700E8953296029703
:101EE00039F0DBCF0091570001700130D9F308952C
:101EF000103011F00296E7CF112484E15AC08437E4
:101F000009F04AC0B0DE80936701ADDE80936601C0
:101F1000AADE90916901853421F491609093690162
:101F20000DC09E7F9093690180916400909165003F
:101F3000880F991F909365008093640094DE80322F
:101F400009F0F9CE84E18BDE00E010E01DC0809145
:101F5000690180FF06C0809164009091650033D0D4
:101F600007C081FD06C0E0916400F0916500849196
:101F700076DE8091640090916500019690936500F3
:101F8000809364000F5F1F4F8091660190916701FD
:101F900008171907E0F20EC0853779F464DE803245
:101FA00009F0C9CE84E15BDE8EE159DE83E957DEBC
:101FB00087E055DE80E153DEBECE863709F0BBCE2A
:101FC00080E080DEB8CEE199FECF9FBB8EBBE09A69
:101FD00099278DB30895262FE199FECF9FBB8EBB25
:101FE0002DBB0FB6F894E29AE19A0FBE01960895C0
:041FF000F894FFCF93
:021FF40080006B
:0400000300001C00DD
:00000001FF
